:1008D7003F065B4F666D7D077F6F505F32161D9435
:0508E700905E1014EF0B
:03000B000206EFFB
:1006EF00C0E0C0D0758A66758CFC052985564BA273
:1006FF00A6E433F556E54F146019146027240270F1
:10070F0032E54B702EE5566401702885292D754F03
:10071F00018020E54BB4011BE55670178529307514
:10072F004F02800FE54B700BE556B4010685293259
:10073F00754F03052C85574CA2A7E433F557E550A9
:10074F0014601914602724027032E54C702EE5579F
:10075F0064017028852C2F7550018020E54CB40161
:10076F001BE5577017852C31755002800FE54C70C3
:10077F000BE557B40106852C34755003D0D0D0E06B
:01078F003237
:1008C2005389F0438901758A66758CFCC28DD28C7E
:0508D200D2A9D2B922F9
:0707E8002552F8E6FD7C003C
:1007EF00EF24FE601414601B14601E24037022C2D9
:1007FF00B5C2B4C2B3D2B28018C2B5C2B4D2B3C2FA
:10080F00B2800EC2B5D2B48004D2B5C2B4C2B3C2E4
:10081F00B274E12DF58274083CF583E493F5807F83
:0A082F00017E001208EC7580FF2224
:100790008C1C8D1D755201E51D2401FFE4351CFEE6
:1007A000C3E5529FEE6480F8748098503A1205FABF
:1007B000FFE55275F00AA424FBFEEFD39E4024E52A
:1007C0005275F00AA42405FFE435F0FE1205FAC3C1
:1007D0009FEE6480F87480985009E55275F00AA481
:0807E000120613055280B0223D
:10036A00D2AF1208A91208C275330A75413275351F
:10037A001475423C853337854136E54F6403703541
:10038A00C3E532952DFBE49400FA7E037FE8AD03C2
:10039A00FC1206378F33C3E530952DFFE49400FE37
:1003AA007C007D64120625AD03AC021206378F412C
:1003BA00E4F529F54FE55064037035C3E534952F0C
:1003CA00FBE49400FA7E037FE8AD03FC1206378F44
:1003DA0035C3E531952FFFE49400FE7C007D64125D
:1003EA000625AD03AC021206378F42E4F52CF55010
:1003FA007B007A0079337D057C001207907A0079B8
:10040A00417D091207907A0079357D051207907AA5
:10041A000079427D09120790209315E54470110571
:10042A003FE53FC394014023E4F53F754401801B37
:10043A00309318E544B401130551E551C3940140C2
:10044A000A0543534301B2A0E4F544E54370088525
:10045A0033378541368006853537854236853754A8
:10046A00853655E4F552E55475F00A84E552FDC324
:10047A0074029DFD74382DF8A6F0E55475F00A84CF
:10048A00F554E55204FF74391207E80552E552C3E0
:10049A00940240D2E4F552E552C3940240030203A7
:1004AA0084E55575F00A84E552FDC374029DFD7416
:1004BA003A2DF8A6F0E55575F00A84F555E552246B
:0B04CA0003FF743B1207E8055280CCD2
:1008EC00EF1FAC0670011E4C600A7D027CC7DCFE5B
:0408FC00DDFC80ECB3
:0109000022D4
:03090D002575004D
:1008A90043878075985053890F438920758BF47558
:0908B9008DF4C2ABD28ED2AC2248
:080003008F993099FDC299228A
:10083900750BFF750C09750D0D8E0E8F0F7B007AE8
:1008490000795812006AE4FF74582FF8E6600AF537
:09085900993099FDC2990F80EF5E
:010862002273
:10088A002094047F0180172095047F02801020960F
:0E089A00047F0380092097047F048002E4FF9E
:0108A800222D
:1004D500E4FD12088AEF24FE601414601B146022E8
:1004E50024037028A294E433FE7569018020A29547
:1004F500E433FE7569028016A296E433FE7569033E
:10050500800CA297E433FE75690480027E01E565DF
:10051500D39400401D0567E567700205669432E5D2
:10052500669400400DE5679450E5669400500375A8
:100535006202E56214602014603D1470030205E355
:10054500240360030205F1EE60030205F4F563F58B
:10055500647562010205F4EE701B0564E5647002C2
:100565000563C39401E563940050030205F47562C5
:10057500020565807A8075EE6045C3E5679432E5CE
:100585006694005003E4F562C3E5679432E566942A
:1005950000405CE5679450E56694005052E565B40B
:1005A500010AE56975F00AA404FD8035E565B40224
:1005B5000CE569B5680775F00AA42402FD802205DB
:1005C50064E56470020563C39450E5639400401FBD
:1005D500E56975F00AA42403FD7562038011EE60D8
:1005E5000EE4F562F565F566F5678003E4F5628569
:0405F5006968AF057D
:0105F90022DF
:03000000020901F1
:0C090100787FE4F6D8FD75816902036A76
:1005FA00BB010689828A83E0225002E722BBFE02FF
:09060A00E32289828A83E4932231
:10061300BB010689828A83F0225002F722BBFE01C6
:02062300F322C0
:10062500EF8DF0A4A8F0CF8CF0A428CE8DF0A42EE9
:02063500FE22A3
:10063700BC000BBE0029EF8DF084FFADF022E4CCA7
:10064700F875F008EF2FFFEE33FEEC33FCEE9DEC70
:10065700984005FCEE9DFE0FD5F0E9E4CEFD22EDB6
:10066700F8F5F0EE8420D21CFEADF075F008EF2F00
:10067700FFED33FD4007985006D5F0F222C398FDF1
:050687000FD5F0EA228E
:10000E00E517240BF8E60517227808300702780B5F
:10001E00E475F0011206B90205FA2000EB7F2ED22C
:10002E00008018EF540F2490D43440D4FF30040BCA
:10003E00EF24BFB41A0050032461FFE518600215C7
:10004E0018051BE51B7002051A30070D7808E475BC
:10005E00F0011206B9EF0206130208637403D20709
:10006E008003E4C207F5178B088A09890AE4F5189C
:10007E00F51AF51BE51860077F2012004980F5750B
:10008E0019FFC201C200C202C203C205C206C208E3
:10009E00120017FF700D3007057F0012005AAF1BBC
:1000AE00AE1A22B4255FC2D5C204120017FF24D0A7
:1000BE00B40A00501A75F00A781830D50508B6FF44
:1000CE000106C6A426F620D5047002D20380D924D8
:1000DE00CFB41A00EF5004C2E5D20402025AD20184
:1000EE0080C6D20080C0D20280BCD2D580BAD205E2
:1000FE0080B47F201200492002077401B518004019
:10010E00F112000EFF120049020082D208D20680C0
:10011E009512000EFB12000EFA12000EF94A4B70E9
:10012E0006792B7A037BFF20022EE518602A7E00CB
:10013E008E8275830012068C60060EEE651970F0C5
:10014E00C2D5EBC0E0EAC0E0E9C0E0EE1202A1D0F9
:10015E00E0F9D0E0FAD0E0FB1205FAFF60AAEBC09E
:10016E00E0EAC0E0E9C0E0120049D0E02401F9D095
:10017E00E03400FAD0E0FBE5190460DCD519D98033
:10018E00877BFF7A02799DD202809C79108002795A
:10019E0008C206C2088008D2D5790A8004790AC23C
:1001AE00D5E519047002F519E4FAFDFEFF12000EF2
:1001BE00FC7B0820011312000EFD7B1030000A128A
:1001CE00000EFE12000EFF7B20EC3382D592D5502E
:1001DE0013C3E43000069FFFE49EFEE42001039D5E
:1001EE00FDE49CFCE4CBF8C201EC700CCFCECDCC80
:1001FE00E824F8F870F38017C3EF33FFEE33FEED0B
:10020E0033FDEC33FCEB33FB994002FB0FD8E9EBEB
:10021E00300105F8D0E0C448B201C0E00AEC4D4E02
:10022E004F78207B0070C2EAB5190040BCC0E012C6
:10023E0002A3D0F0D0E0200104C4C0E0C4B201C0DB
:10024E00F0120032D0F0D5F0EB0200821206C90196
:10025E001F5301995800F04C00EC42019D4F01A52F
:0F026E004401A54901054301AB55018F46018F9E
:10027D0045018F47034B5000F42D00F82E011B2B29
:10028D0000FC2301192003342A00B4480000011397
:10029D003F3F3F00790AA2D5200314300509B9105C
:1002AD00020404B9080104A2D5200602500104205D
:1002BD0002689202B518005034C0E07F2030031957
:1002CD007F30A20272067205500F1202FAC202C2EC
:1002DD0006C205C2087F30800F300503E9C0E01269
:1002ED000049300503D0E0F9D0E0B518CC30051742
:1002FD007F30B9100C1200497F583004077F788089
:10030D0003B908031200493002057F2D0200497F11
:10031D00202008F87F2B2006F322920280CF286E32
:10032D00756C6C2900D20112000E3001F8C20178F3
:10033D001830D50108F60200B42D5043495812006B
:10034D000E2403B405004001E49003469312003AD5
:0D035D00743A12003AD20375180402019997
:10068C00BB010CE58229F582E5833AF583E0225023
:10069C0006E92582F8E622BBFE06E92582F8E2226D
:0D06AC00E58229F582E5833AF583E4932287
:1006B900FAE6FB0808E6F925F0F618E6CA3AF62242
:1006C900D083D082F8E4937012740193700DA3A3C0
:1006D90093F8740193F5828883E4737402936860D4
:0606E900EFA3A3A380DFD4
:10086300EFB40A07740D12086E740A309811A89930
:10087300B8130CC2983098FDA899C298B811F630F5
:0708830099FDC299F59922CD
:00000001FF
