:0A110A003F065B4F666D7D077F6FA7
:03112E0001390183
:03000B00020CB133
:100CB100C0E0C0D0E54E705CE553701930A60BC2A0
:100CC100A685228C85248A020DB5D2A685478C85FE
:100CD1004C8A020DB530A61EE551B40A0E755100BD
:100CE10085228C85248AC2A6020DB585478C854C48
:100CF1008A0551020DB5E551B40A0E7551008547BB
:100D01008C854C8AD2A6020DB585228C85248A0554
:100D110051020DB5758A66758CFC0526E5267002B3
:100D210005250529855E4FA2A6E433F55EE5281465
:100D3100601914602724027032E54F702EE55E645D
:100D410001702885292D7528018020E54FB4011BEC
:100D5100E55E7017852930752802800FE54F700B0D
:100D6100E55EB40106852932752803052C855F509F
:100D7100A2A7E433F55FE52A146019146027240261
:100D81007032E550702EE55F64017028852C2F7557
:100D91002A018020E550B4011BE55F7017852C31D5
:100DA100752A02800FE550700BE55FB40106852CB2
:090DB10034752A03D0D0D0E032E1
:03001B00020EC111
:100EC100C0E0C0D0E554701730A70A85238D85276F
:100ED1008BC2A7804385488D854D8BD2A780393041
:100EE100A71CE552B40A0D75520085238C85278A0B
:100EF100C2A7802485488C854D8A0552801AE55207
:100F0100B40A0D75520085488C854D8AD2A7800898
:0D0F110085238C85278A0552D0D0D0E03290
:100F1E008C608D61755901E5612401FFE43560FE39
:100F2E00C3E5599FEE6480F8748098503A1207BB5F
:100F3E00FFE55975F00AA424FBFEEFD39E4024E58D
:100F4E005975F00AA42405FFE435F0FE1207BBC361
:100F5E009FEE6480F87480985009E55975F00AA4E4
:080F6E001207D4055980B022DE
:1009CD00E543FD7C00E535FB7A00756500854466E1
:0209DD00AF3336
:0A09DF008F608C618D628A638B6467
:1009E900AB07E4FAF9F8FF7E107D0EFC120F768F43
:1009F9006A8E698D688C67AE63AF64AB07AA06EA35
:100A09003395E0F9F87F007E107D0E7C00120F7699
:100A19008F6E8E6D8D6C8C6BE560B40A0AE562642D
:100A29005045617002802BE560B40A0AE562645A98
:100A390045617002801CE560B40A0AE562640A45F2
:100A4900617002800DE560B40A25E56264144561B0
:100A5900701DAF6AAE69AD68AC677B0AFAF9F81226
:100A690008D88F6A8E698D688C677553018003E495
:100A7900F553E564640A4563700AE56664504565A3
:100A890070028034E564640A4563700AE566645A55
:100A9900456570028022E564640A4563700AE5666B
:100AA900640A456570028010E564640A456370252F
:100AB900E56664144565701DAF6EAE6DAD6CAC6BCB
:100AC9007B0AFAF9F81208D88F6E8E6D8D6C8C6BD3
:100AD9007554018003E4F554AE61AF62EE3395E0DD
:100AE900FDFCAB6AAA69A968A86712084DE47B6492
:100AF900FAF9F81208D8C3E56A9FFDE5699EFCC3B7
:100B090074289FFFE49EAB07FAC374289DFFE49CF9
:100B1900AD078A47AF038F4CF522AF058F24AE6529
:100B2900AF66EE3395E0FDFCAB6EAA6DA96CA86BC0
:100B390012084DE47B64FAF9F81208D8C3E56E9FF0
:100B4900FDE56D9EFCC3740B9FFFE49EAB07FAC3E2
:100B5900740B9DFFE49CAD078A48AF038F4DF523C5
:100B6900AF058F2775890043891185478C854C8A84
:100B7900854D8B85488DD28CD2A9D28ED2ABD2A687
:020B8900D2A7F1
:010B8B002247
:1010E0005389F0438901758A66758CFCC28DD28C58
:0510F000D2A9D2B922D3
:070E46002559F8E6FD7C00D0
:100E4D00EF14B408005054900E6275F003A4C583DE
:100E5D0025F0C58373020E7A020E7E020E82020EFB
:100E6D0086020E8A020E92020E9A020EA2D2A48061
:100E7D000ED2A48012D2A48016D2A4801AC2A4D2FB
:100E8D00A3D2A28016C2A4D2A3C2A2800EC2A4C2B3
:100E9D00A3D2A28006C2A4C2A3C2A2740A2DF58257
:100EAD0074113CF583E493F5807F017E001210F5FB
:040EBD00E4F58022B6
:10001E00D2AF75330A75433275351475443C1209E7
:10002E00CD85333885433685385A85365BE4F559A8
:10003E00E55A75F00A84E559FDC374029DFD7439C5
:10004E002DF8A6F0E55A75F00A84F55AE55904FF25
:10005E00743A120E460559E559C3940240D2E4F59E
:10006E0059E55B75F00A84E559FDC374029DFD7474
:10007E003B2DF8A6F0E55B75F00A84F55BE5592497
:10008E0003FF743C120E460559E559C3940240D144
:10009E00E54E2401FDE433FC7F08120E4DE539FDDB
:1000AE007C007F07120E4DE5452401FDE433FC7FF5
:1000BE0006120E4D20B315E54B70110542E542C3F5
:1000CE0094014021E4F542754B01801930B316E5D9
:1000DE004BB401110558E558C394014008054E5321
:1000EE004E01E4F54BE54E60030202DB20B115E54F
:1000FE00467011053FE53FC394014026E4F53F7578
:10010E004601801E30B11BE546B401160555E55576
:10011E00C39401400D0539E539B40303753901E483
:10012E00F546E53924FE60630460030201F385336E
:10013E0038854336120B8CEF24EA601F24F7602BB0
:10014E00146038240B60030201F3740A2533F5336F
:10015E00D3943240347533320201F074F62533F500
:10016E0033C3940A500375330A8077740A2543F516
:10017E0043D3945A400375435A806774F62543F56A
:10018E0043C3940A500375430A8057853538854416
:10019E0036120B8CEF24EA601B24F76027146034B0
:1001AE00240B7041740A2535F535D394324003750E
:1001BE003532802E74F62535F535C3940A50037505
:1001CE00350A801E740A2544F544D3945A400375AB
:1001DE00445A800E74F62544F544C3940A500375B0
:1001EE00440A1209CD7590FFC293209615E5497009
:1001FE00110540E540C394014061E4F540754901A5
:10020E008059309656E549640170500556E556C33F
:10021E0094014047E533FD7C00E4FF1210647F0536
:10022E007E001210F5E543FD7C007F011210647F05
:10023E00057E001210F5E535FD7C007F021210647C
:10024E007F057E001210F5E544FD7C007F03121041
:10025E00647F057E001210F5E4F5497590FFC2909B
:10026E00209619E54A70150541E541C394015003E6
:10027E00020455E4F541754A010204552096030225
:10028E000455E54A640160030204550557E557C35A
:10029E0094015003020455E4FF120FBA8F337F010D
:1002AE00120FBA8F437F02120FBA8F357F03120FD0
:1002BE00BA8F44E543FD7C00E535FB7A0075650099
:1002CE008F66AF331209DFE4F54A0204551210C5EA
:1002DE001210E0E52864037035C3E532952DFBE47A
:1002EE009400FA7E037FE8AD03FC1207F88F33C348
:1002FE00E530952DFFE49400FE7C007D641207E648
:10030E00AD03AC021207F88F43E4F529F528E52A70
:10031E0064037035C3E534952FFBE49400FA7E0335
:10032E007FE8AD03FC1207F88F35C3E531952FFF3B
:10033E00E49400FE7C007D641207E6AD03AC02126D
:10034E0007F88F44E4F52CF52A7B007A0079337D8B
:10035E00057C00120F1E7A0079437D09120F1E7A5A
:10036E000079357D05120F1E7A0079447D09120F32
:10037E001E20B115E5467011053FE53FC3940140BF
:10038E0021E4F53F754601801930B116E546B401FA
:10039E00110555E555C3940140080545534501E443
:1003AE00F546E54570088533388543368006853534
:1003BE0038854436C3E52694E8E5259403500302B8
:1003CE000455E4F525F5267F631200037F681200BD
:1003DE00037F311200037F3A1200037F661200037F
:1003EE007F3D120003AF337E00120FEA7F2C120006
:1003FE00037F641200037F3D120003AF437E0012A1
:10040E000FEA7F3B1200037F631200037F68120026
:10041E00037F321200037F3A1200037F661200033D
:10042E007F3D120003AF357E00120FEA7F2C1200C3
:10043E00037F641200037F3D120003AF447E00125F
:10044E000FEA7F3B1200037F0A7E001210F50200B6
:01045E003568
:1010F500EF1FAC0670011E4C600A7D027CC7DCFE4A
:04110500DDFC80ECA1
:0111090022C3
:1010880020B5047F01801720B0047F02801020B2B1
:0E109800047F03800920B6047F048002E4FF79
:0110A6002227
:100B8C00E4FD121088EF24FE601414601B14602224
:100B9C0024037028A2B5E433FE750F018020A2B0A7
:100BAC00E433FE750F028016A2B2E433FE750F0318
:100BBC00800CA2B6E433FE750F0480027E01E50BB7
:100BCC00D39400401D050DE50D7002050C9432E523
:100BDC000C9400400DE50D9450E50C9400500375F9
:100BEC000802E50814602014603D147003020C9A8E
:100BFC0024036003020CA8EE6003020CABF509F5AC
:100C0C000A750801020CABEE701B050AE50A7002AE
:100C1C000509C39401E50994005003020CAB750857
:100C2C0002050B807A8075EE6045C3E50D9432E5C4
:100C3C000C94005003E4F508C3E50D9432E50C94D4
:100C4C0000405CE50D9450E50C94005052E50BB45B
:100C5C00010AE50F75F00AA404FD8035E50BB4021A
:100C6C000CE50FB50E0775F00AA42402FD802205D1
:100C7C000AE50A70020509C39450E5099400401F67
:100C8C00E50F75F00AA42403FD7508038011EE60CE
:100C9C000EE4F508F50BF50CF50D8003E4F508856D
:040CAC000F0EAF0573
:010CB0002221
:101064008F608C618D6212111E7FA0121014120009
:101074000EAF6012101412000EAF621210141200A0
:041084000E02112720
:020FBA008F6046
:100FBC0012111E7FA012101412000EAF601210142A
:100FCC0012000E12111E7FA112101412000E12101C
:0D0FDC00A78F617F01121114121127AF6160
:010FE90022E5
:09111E00D2A0D2A1C2A0C2A122FC
:07112700C2A0D2A1D2A02258
:02101400AD0726
:10101600E4FB74807E00A803088006CEA2E713CE08
:1010260013D8F8FFEDF582EF558224FF92A0D2A1E6
:06103600C2A10BBB08DCA7
:01103C002291
:1010A700E4FFD2A0FED2A130A00D7480A80608806C
:0D10B70002C313D8FC4207C2A10EBE08E818
:0110C4002209
:0A111400EF24FF92A0D2A1C2A12295
:0B000E00D2A0D2A1A2A0E433FFC2A147
:0100190022C4
:0311320025750020
:1010C50043878075985053890F438920758BF47534
:0B10D5008DF4C2ABD28ED2AFD2AC22A1
:080003008F993099FDC299228A
:100FEA00756DFF756E11756F328E708F717B007A19
:100FFA000079601204BBE4FF74602FF8E6600AF51A
:09100A00993099FDC2990F80EFA5
:0110130022BA
:03000000020DBA34
:0C0DBA00787FE4F6D8FD75817D020E0103
:1007BB00BB010689828A83E0225002E722BBFE023C
:0907CB00E32289828A83E493226F
:1007D400BB010689828A83F0225002F722BBFE0104
:0207E400F322FE
:1007E600EF8DF0A4A8F0CF8CF0A428CE8DF0A42E27
:0207F600FE22E1
:1007F800BC000BBE0029EF8DF084FFADF022E4CCE5
:10080800F875F008EF2FFFEE33FEEC33FCEE9DECAD
:10081800984005FCEE9DFE0FD5F0E9E4CEFD22EDF3
:10082800F8F5F0EE8420D21CFEADF075F008EF2F3D
:10083800FFED33FD4007985006D5F0F222C398FD2E
:050848000FD5F0EA22CB
:10084D00E88FF0A4CC8BF0A42CFCE98EF0A42CFC4A
:10085D008AF0EDA42CFCEA8EF0A4CDA8F08BF0A4C8
:10086D002DCC3825F0FDE98FF0A42CCD35F0FCEB27
:10087D008EF0A4FEA9F0EB8FF0A4CFC5F02ECD39EC
:0F088D00FEE43CFCEAA42DCE35F0FDE43CFC2259
:10089C0075F008758200EF2FFFEE33FECD33CDCC13
:1008AC0033CCC58233C5829BED9AEC99E582984096
:1008BC000CF582EE9BFEED9AFDEC99FC0FD5F0D673
:1008CC00E4CEFBE4CDFAE4CCF9A88222B800C1B99D
:1008DC000059BA002DEC8BF084CFCECDFCE5F0CBDB
:1008EC00F97818EF2FFFEE33FEED33FDEC33FCEB14
:1008FC0033FB10D703994004EB99FB0FD8E5E4F9CF
:10090C00FA227818EF2FFFEE33FEED33FDEC33FCBB
:10091C00C933C910D7059BE99A4007EC9BFCE99AAF
:10092C00F90FD8E0E4C9FAE4CCFB2275F010EF2FF4
:10093C00FFEE33FEED33FDCC33CCC833C810D707F4
:10094C009BEC9AE899400AED9BFDEC9AFCE899F82F
:0E095C000FD5F0DAE4CDFBE4CCFAE4C8F922C2
:100F7600C2D5E830E70FB2D5E4C39BFBE49AFAE4A6
:100F860099F9E498F8EC30E717B2D5120FAC1208CD
:100F9600D8E4C39BFBE49AFAE499F9E498F8800351
:100FA6001208D830D50DE4C39FFFE49EFEE49DFDF4
:040FB600E49CFC2299
:10045F00E579246DF8E6057922786A300702786D20
:10046F00E475F0011209970207BB2000EB7F2ED233
:10047F00008018EF540F2490D43440D4FF30040B75
:10048F00EF24BFB41A0050032461FFE57A60021510
:10049F007A057DE57D7002057C30070D786AE4757D
:1004AF00F001120997EF0207D402103D7403D2072F
:1004BF008003E4C207F5798B6A8A6B896CE4F57A5D
:1004CF00F57CF57DE57A60077F2012049A80F5753B
:1004DF007BFFC201C200C202C203C205C206C2082C
:1004EF00120468FF700D3007057F001204ABAF7D5B
:1004FF00AE7C22B4255FC2D5C204120468FF24D09B
:10050F00B40A00501A75F00A787A30D50508B6FF8C
:10051F000106C6A426F620D5047002D20380D92482
:10052F00CFB41A00EF5004C2E5D2040206ABD201D9
:10053F0080C6D20080C0D20280BCD2D580BAD2058C
:10054F0080B47F2012049A2002077401B57A00400C
:10055F00F112045FFF12049A0204D3D208D206806C
:10056F009512045FFB12045FFA12045FF94A4B7095
:10057F0006797C7A077BFF20022EE57A602A7E00BF
:10058F008E8275830012096A60060EEE657B70F02D
:10059F00C2D5EBC0E0EAC0E0E9C0E0EE1206F2D04F
:1005AF00E0F9D0E0FAD0E0FB1207BBFF60AAEBC086
:1005BF00E0EAC0E0E9C0E012049AD0E02401F9D0EB
:1005CF00E03400FAD0E0FBE57B0460DCD57BD9801A
:1005DF00877BFF7A0679EED202809C7910800279B0
:1005EF0008C206C2088008D2D5790A8004790AC2E7
:1005FF00D5E57B047002F57BE4FAFDFEFF12045F84
:10060F00FC7B0820011312045FFD7B1030000A12DF
:10061F00045FFE12045FFF7B20EC3382D592D5502E
:10062F0013C3E43000069FFFE49EFEE42001039D08
:10063F00FDE49CFCE4CBF8C201EC700CCFCECDCC2A
:10064F00E824F8F870F38017C3EF33FFEE33FEEDB5
:10065F0033FDEC33FCEB33FB994002FB0FD8E9EB96
:10066F00300105F8D0E0C448B201C0E00AEC4D4EAD
:10067F004F78207B0070C2EAB57B0040BCC0E0120F
:10068F0006F4D0F0D0E0200104C4C0E0C4B201C031
:10069F00F0120483D0F0D5F0EB0204D31209A705B2
:1006AF00705305EA5805414C053D4205EE4F05F6DE
:0F06BF004405F64905564305FC5505E04605E0A0
:1006CE004505E047079C5005452D05492E056C2B29
:1006DE00054D23056A2007852A0505480000056497
:1006EE003F3F3F00790AA2D5200314300509B91007
:1006FE00020404B9080104A2D52006025001042008
:10070E0002689202B57A005034C0E07F203003199F
:10071E007F30A20272067205500F12074BC202C240
:10072E0006C205C2087F30800F300503E9C0E01213
:10073E00049A300503D0E0F9D0E0B57ACC30051735
:10074E007F30B9100C12049A7F583004077F7880DE
:10075E0003B9080312049A3002057F2D02049A7F12
:10076E00202008F87F2B2006F322920280CF286EDD
:10077E00756C6C2900D20112045F3001F8C2017849
:10078E007A30D50108F60205052D5043495812045A
:10079E005F2403B405004001E49007979312048B85
:0D07AE00743A12048BD203757A040205EA36
:100DC60002001EE493A3F8E493A34003F68001F225
:100DD60008DFF48029E493A3F85407240CC8C3332E
:100DE600C4540F4420C8834004F456800146F6DFFD
:100DF600E4800B010204081020408090112EE47E4E
:100E0600019360BCA3FF543F30E509541FFEE493F1
:100E1600A360010ECF54C025E060A840B8E493A3B8
:100E2600FAE493A3F8E493A3C8C582C8CAC583CAE3
:100E3600F0A3C8C582C8CAC583CADFE9DEE780BE9B
:0111310000BD
:10096A00BB010CE58229F582E5833AF583E0225042
:10097A0006E92582F8E622BBFE06E92582F8E2228C
:0D098A00E58229F582E5833AF583E49322A6
:10099700FAE6FB0808E6F925F0F618E6CA3AF62261
:1009A700D083D082F8E4937012740193700DA3A3DF
:1009B70093F8740193F5828883E4737402936860F3
:0609C700EFA3A3A380DFF3
:10103D00EFB40A07740D121048740A309811A8996C
:10104D00B8130CC2983098FDA899C298B811F63013
:07105D0099FDC299F59922EB
:00000001FF
