:0A11FF003F065B4F666D7D077F6FB2
:0412230041002B1447
:03000B00020E7B67
:100E7B00C0E0C083C082C0D030A028900003E0F552
:100E8B008C900005E0F58A90002AE004F0E06464A1
:100E9B007037F090001AE0F58C90001FE0F58AC2D5
:100EAB00A0802690001AE0F58C90001FE0F58A9048
:100EBB00002AE004F0E0B46410E4F0900003E0F5E5
:100ECB008C900005E0F58AD2A030A728900003E0B3
:100EDB00F58C900005E0F58A90002BE004F0E064BF
:100EEB00647037F090001AE0F58C90001FE0F58AE3
:100EFB00C2A7802690001AE0F58C90001FE0F58ABF
:100F0B0090002BE004F0E0B46410E4F0900003E0F8
:100F1B00F58C900005E0F58AD2A7D0D0D082D08393
:030F2B00D0E032E1
:0C0DB50090002EE0FF900000E0FD7C00AC
:080DC100900040ECF0A3EDF0FE
:100DC900AB07E4FAF9F8FF7E107D0EFC121034909F
:100DD9000042120943900042E0FCA3E0FDA3E0FEBB
:100DE900A3E0FFE47B64FAF9F81208B1900042121B
:100DF9000943900040E0FEA3E0FFEE3395E0FDFCDF
:100E0900A3E0F8A3E0F9A3E0FAA3E0FB120826E4C3
:100E19007B64FAF9F81208B1AB07AA06900042A35D
:100E2900A3E0FEA3E0C39BFFEE9AFEC3740B9BFDF8
:100E3900E49AFCC3740B9FFFE49EAB07FAEC9000A5
:100E490003F0AF05900005EFF0EA90001AF0AF0348
:100E590090001FEFF05389F0438901900003E0F5FA
:100E69008C900005E0F58AD28CD2A9D2AFD2A0D25B
:010E7900A7D1
:010E7A002255
:060FBA00F583E0FD7C0060
:100FC000EF14B408005054900FD575F003A4C583F6
:100FD00025F0C58373020FED020FF1020FF5020F2A
:100FE000F9020FFD02100502100D021015D2A480A7
:100FF0000ED2A48012D2A48016D2A4801AC2A4D287
:10100000A3D2A28016C2A4D2A3C2A2800EC2A4C23E
:10101000A3D2A28006C2A4C2A3C2A274FF2DF582ED
:1010200074113CF583E493F5807F017E001211CBAF
:04103000E4F5802241
:03002300020BB01D
:100BB000C0E0C0F0C083C082C0D075D000C000C00B
:100BC00001C002C003C004C005C006C007209803CE
:030BD000020CBF55
:100BD300900039E599F0E0FFB466089000087401CD
:100BE300F0800AEFB464069000087402F0C2989093
:0D0BF3000008E024FE6065046003020CBFF2
:100C000090003AE599F0E0FFC3648094B0402CD3A3
:100C1000EF648094B95024900037E0FE04F0742013
:100C20002EF582E43400F583EFF0900037E0C394B2
:100C30000A5003020CBFE4F0020CBF900037E0FF43
:100C4000D39400407A74202FF582E43400F583E4D5
:0D0C5000F07B017A007920120CDA90002E62
:020C5D008059BC
:100C5F0090003AE599F0E0FFC3648094B04028D348
:100C6F00EF648094B95020900037E0FE04F07420B8
:100C7F002EF582E43400F583EFF0900037E0C39453
:100C8F000A402DE4F08029900037E0FFD394004014
:100C9F001F74202FF582E43400F583E4F07B017A92
:100CAF00007920120CDA900000EFF0900037E4F09A
:100CBF00D007D006D005D004D003D002D001D00089
:0B0CCF00D0D0D082D083D0F0D0E03233
:1000260090002E740AF09000007432F0E0FD7C001F
:100036007F0A120DC190002EE0FF900006E4F0A3A7
:10004600EFF0900000E0FFA3E4F0A3EFF01211B090
:10005600900006E0FFA3E0900033CFF0A3EFF0900E
:100066000001E0FFA3E0900035CFF0A3EFF0E490AD
:100076000032F0900033E0FAA3E0FB7C007D0AFF3B
:10008600AE021207D1AF05900032E0FDC374049DA5
:10009600FDE49400FC740A2DF58274003CF583EFB0
:1000A600F07C007D0AAF03AE021207D1900033EE5A
:1000B600F0A3EFF0900032E0FE04FF740B2EF58201
:1000C600E43400120FBA900032E004F0E0C3940466
:1000D60040A1E4900032F0900035E0FAA3E0FB7C0A
:1000E600007D0AFFAE021207D1AF05900032E0FD97
:1000F600C374049DFDE49400FC740E2DF582740017
:100106003CF583EFF07C007D0AAF03AE021207D107
:10011600900035EEF0A3EFF0900032E0FE2405FFEC
:10012600740F2EF582E43400120FBA900032E00408
:10013600F0E0C3940440A0900006E064047004A3B9
:10014600E06457600302020490002EE0FFFD900079
:1001560001E4F0A3EDF07590FFC29320971B900089
:1001660019E07015900014E004F0E0C39401403AE1
:10017600E4F090001904F0803130972E900019E0D9
:100186006401702690002CE004F0E0C39401401A4C
:10019600EFD3942890002EE0400524D8F080032465
:1001A6000AF0120DB5E4900019F07590FFC2902088
:1001B600971890001BE07012900015E004F0E0C361
:1001C600940150030202E402028F2097030202E424
:1001D60090001BE0640160030202E490002DE0043D
:1001E600F0E0C3940150030202E4A3E0B432062413
:1001F600CFF00202C290002EE004F00202C290008C
:1002060006E064087004A3E064AE60030202CC90CA
:100216000000E0FFFDA3E4F0A3EDF07590FFC293AC
:1002260020971B900019E07015900014E004F0E090
:10023600C39401403AE4F090001904F080313097FD
:100246002E900019E06401702690002CE004F0E086
:10025600C39401401AEFD3945A9000004005746489
:10026600F08004E0240AF0120DB5E4900019F07550
:1002760090FFC29020971B90001BE0701590001510
:10028600E004F0E0C394014055E4F090001B04F054
:10029600804C30974990001BE06401704190002D1E
:1002A600E004F0E0C394014035900000E0940A5069
:1002B60004E4F08007900000E024F6F0120DB5E4A7
:1002C60090001BF0801890002EE0FF900006E4F0EE
:1002D600A3EFF0900000E0FFA3E4F0A3EFF0120A12
:1002E6002BEF24D6601B14602A2402703E90000671
:1002F6007404F0A37457F090002EE0FF9000018084
:10030600259000067408F0A374AEF0900000E0FF9C
:10031600A3801390002EE0FF900006E4F0A3EFF018
:10032600900000E0FFA3E4F0A3EFF07590FFC29306
:1003360020961B90001CE07015900016E004F0E07B
:10034600C39401404BE4F090001C04F080423096C8
:100356003F90001CE06401703790002FE004F0E04D
:10036600C39401402B90002EE0FD7C00E4FF1210A8
:10037600F17F057E001211CB900000E0FD7C007F2E
:10038600011210F17F057E001211CBE490001CF0E3
:100396007590FFC29020961B90001DE0701590008E
:1003A60017E004F0E0C394014046E4F090001D0419
:1003B600F0803D30963A90001DE064017032900066
:1003C60030E004F0E0C394014026E4FF1210B5903B
:1003D600002EEFF07F011210B5900000EFF0FE90B6
:1003E600002EE0FFEEFD7C00120DC1E490001DF032
:1003F6007590FFC29020941B90001EE0701590002F
:1004060018E004F0E0C394014052E4F090001E04AA
:10041600F0804930944690001EE06401703E9000E2
:1004260031E004F0E0C3940140327F661200037F9E
:100436003D12000390002EE0FF7E001210787F2C04
:100446001200037F641200037F3D12000390000038
:10045600E0FF7E00121078E490001EF07F0A7E0016
:060466001211CB0200564A
:1011CB00EF1FAC0670011E4C600E7508027509C747
:0811DB00D509FDD508FA80E8F2
:0111E30022E9
:1011720020B1047F01801720B0047F02801020B2CA
:0E118200047F03800920B3047F048002E4FF91
:01119000223C
:100A2B00E4FD121172EF24FE601714602114602B89
:100A3B0024037034A2B1E433FE9000797401F0808A
:100A4B0029A2B0E433FE9000797402F0801CA2B2AC
:100A5B00E433FE9000797403F0800FA2B3E433FE0D
:100A6B009000797404F080027E01900075E0FFD352
:100A7B009400402C900077E004F07006900076E034
:100A8B0004F0900076E0FAA3E0FBC39432EA940002
:100A9B00400EEB9450EA940050069000727402F0F2
:100AAB00900072E0146024146056147003020B8ED5
:100ABB0024036003020BA0EE6003020BA5900073EE
:100ACB00F0A3F090007204F0020BA5EE702F9000D3
:100ADB0074E004F07006900073E004F0C3900074AF
:100AEB00E09401900073E094005003020BA590007A
:100AFB00727402F0900075E004F0020BA5020BA0DB
:100B0B00EE6050900076E0FAA3E0FBC39432EA94D7
:100B1B00005005E4900072F0C3EB9432EA9400406D
:100B2B0079EB9450EA94005071EFB4010C9000797A
:100B3B00E075F00AA404FD804D900075E0B402113D
:100B4B00900078E0FFA3E0B5070775F00AA4240234
:100B5B00FD8033900074E004F07006900073E004A5
:100B6B00F0C3900074E09450900073E09400402A1E
:100B7B00900079E075F00AA42403FD9000727403D1
:100B8B00F08017EE6014E4900072F0900075F0A303
:100B9B00F0A3F08005E4900072F0900079E09000F3
:040BAB0078F0AF052A
:010BAF002223
:1010F100900040EFF0A3ECF0A3EDF01212137FA0EB
:101101001211211211F3900040E0FF12112112116E
:10111100F3900041A3E0FF1211211211F302121CFE
:0510B500900040EFF087
:1010BA001212137FA01211211211F3900040E0FFC7
:1010CA001211211211F31212137FA11211211211FE
:1010DA00F3121191900041EFF07F011212091212DE
:0610EA001C900041E0FF34
:0110F00022DD
:09121300D2A0D2A1C2A0C2A12206
:07121C00C2A0D2A1D2A02262
:02112100AD0718
:10112300E4FB74807E00A803088006CEA2E713CEFA
:1011330013D8F8FFEDF582EF558224FF92A0D2A1D8
:07114300C2A10BEBB408DBB5
:01114A002282
:10119100E4FFD2A0FED2A130A00D7480A806088081
:0E11A10002C313D8FC4FFFC2A10EEEB408E744
:0111AF00221D
:0A120900EF24FF92A0D2A1C2A1229F
:0B11F300D2A0D2A1A2A0E433FFC2A151
:0111FE0022CE
:0312280025750029
:1011B00043878075985053890F438920758BF47548
:0B11C0008DF4C2ABD28ED2AFD2AC22B5
:080003008F993099FDC299228A
:1010780090004D74FFF0A37412F0A37428F0A3EE4F
:10108800F0A3EFF07B017A0079401204D1E4FFEF7E
:10109800FD3395E0FC74402DF58274003CF583E047
:0C10A800600AF5993099FDC2990F80E3B1
:0110B4002219
:03000000020F2EBE
:0C0F2E00787FE4F6D8FD758121020F7574
:1007D100BC000BBE0029EF8DF084FFADF022E4CC0C
:1007E100F875F008EF2FFFEE33FEEC33FCEE9DECD5
:1007F100984005FCEE9DFE0FD5F0E9E4CEFD22ED1B
:10080100F8F5F0EE8420D21CFEADF075F008EF2F64
:10081100FFED33FD4007985006D5F0F222C398FD55
:050821000FD5F0EA22F2
:10082600E88FF0A4CC8BF0A42CFCE98EF0A42CFC71
:100836008AF0EDA42CFCEA8EF0A4CDA8F08BF0A4EF
:100846002DCC3825F0FDE98FF0A42CCD35F0FCEB4E
:100856008EF0A4FEA9F0EB8FF0A4CFC5F02ECD3913
:0F086600FEE43CFCEAA42DCE35F0FDE43CFC2280
:1008750075F008758200EF2FFFEE33FECD33CDCC3A
:1008850033CCC58233C5829BED9AEC99E5829840BD
:100895000CF582EE9BFEED9AFDEC99FC0FD5F0D69A
:1008A500E4CEFBE4CDFAE4CCF9A88222B800C1B9C4
:1008B5000059BA002DEC8BF084CFCECDFCE5F0CB02
:1008C500F97818EF2FFFEE33FEED33FDEC33FCEB3B
:1008D50033FB10D703994004EB99FB0FD8E5E4F9F6
:1008E500FA227818EF2FFFEE33FEED33FDEC33FCE3
:1008F500C933C910D7059BE99A4007EC9BFCE99AD7
:10090500F90FD8E0E4C9FAE4CCFB2275F010EF2F1B
:10091500FFEE33FEED33FDCC33CCC833C810D7071B
:100925009BEC9AE899400AED9BFDEC9AFCE899F856
:0E0935000FD5F0DAE4CDFBE4CCFAE4C8F922E9
:10103400C2D5E830E70FB2D5E4C39BFBE49AFAE4E7
:1010440099F9E498F8EC30E717B2D512106A12084F
:10105400B1E4C39BFBE49AFAE499F9E498F88003B9
:101064001208B130D50DE4C39FFFE49EFEE49DFD5C
:04107400E49CFC22DA
:0C094300ECF0A3EDF0A3EEF0A3EFF02227
:10046C00E508244DF582E43400F583E0050822907C
:10047C00004A30080390004DE475F0011209E502C2
:10048C00094F2001E97F2ED2018018EF540F2490E0
:10049C00D43440D4FF30050BEF24BFB41A00500302
:1004AC002461FFE50960021509050CE50C700205D5
:1004BC000B30080E90004AE475F0011209E5EF02CA
:1004CC00099502114B7403D2088003E4C208F508A5
:1004DC0090004A1209FCE4F509F50BF50CE50960EE
:1004EC00077F201204AF80F5750AFFC202C201C259
:1004FC0003C204C206C207C20912047BFF700D308E
:10050C0008057F001204C0AF0CAE0B22B4255FC2ED
:10051C00D5C20512047BFF24D0B40A00501A75F022
:10052C000A780930D50508B6FF0106C6A426F620C0
:10053C00D5047002D20480D924CFB41A00EF500431
:10054C00C2E5D2050206C1D20280C6D20180C0D259
:10055C000380BCD2D580BAD20680B47F201204AFFF
:10056C002003077401B5090040F112046CFF12045A
:10057C00AF0204E9D209D207809512046CFB120475
:10058C006CFA12046CF94A4B700679927A077BFF6D
:10059C0020032EE509602A7E008E827583001209E5
:1005AC006860060EEE650A70F0C2D5EBC0E0EAC0DA
:1005BC00E0E9C0E0EE120708D0E0F9D0E0FAD0E0B4
:1005CC00FB12094FFF60AAEBC0E0EAC0E0E9C0E013
:1005DC001204AFD0E02401F9D0E03400FAD0E0FBF3
:1005EC00E50A0460DCD50AD980877BFF7A07790499
:1005FC00D203809C791080027908C207C209800856
:10060C00D2D5790A8004790AC2D5E50A047002F5BC
:10061C000AE4FAFDFEFF12046CFC7B0820021312A4
:10062C00046CFD7B1030010A12046CFE12046CFF8A
:10063C007B20EC3382D592D55013C3E43001069F56
:10064C00FFE49EFEE42002039DFDE49CFCE4CBF859
:10065C00C202EC700CCFCECDCCE824F8F870F3804D
:10066C0017C3EF33FFEE33FEED33FDEC33FCEB330E
:10067C00FB994002FB0FD8E9EB300205F8D0E0C43F
:10068C0048B202C0E00AEC4D4E4F78207B0070C29D
:10069C00EAB50A0040BCC0E012070AD0F0D0E02056
:1006AC000204C4C0E0C4B202C0F0120498D0F0D569
:1006BC00F0EB0204E9120A050586530600580557AB
:1006CC004C05534206044F060C44060C49056C437A
:0806DC0006125505F64605F66D
:1006E4004505F64707B250055B2D055F2E05822BA5
:1006F400056323058020079B2A051B480000057A13
:100704003F3F3F00790AA2D5200414300609B910EE
:10071400020404B9080104A2D520070250010420F0
:1007240003689203B509005034C0E07F20300419F7
:100734007F30A20372077206500F120761C203C210
:1007440007C206C2097F30800F300603E9C0E012F9
:1007540004AF300603D0E0F9D0E0B509CC30061779
:100764007F30B9100C1204AF7F583005077F7880B2
:1007740003B908031204AF3003057F2D0204AF7FD1
:10078400202009F87F2B2007F322920380CF286EC4
:10079400756C6C2900D20212046C3002F8C2027823
:1007A4000930D50108F602051B2D5043495812049F
:1007B4006C2403B405004001E49007AD931204A037
:0D07C400743A1204A0D20475090402060064
:100CDA0090003BEBF0A3EAF0A3E9F090003BE0FBC5
:100CEA00A3E0FAA3E0F912094FFF12000E500C908C
:100CFA00003CE475F0011209B980E0D20090003B93
:100D0A00E0FBA3E0FAA3E0F912094FFF642B6004A9
:100D1A00EFB42D1D90003BE0FBA3E475F00112092E
:100D2A00CFA9F0FA12094F642D6003D38001C39250
:100D3A0000E490003EF0A3F090003BE0FBA3E0FA51
:100D4A00A3E0F912094FFF1211E4504290003BE070
:100D5A00FBA3E0FAA3E0F912094FFF3395E0FEEF97
:100D6A0024D0FBEE34FFFA90003EE0FEA3E0FF7CC5
:100D7A00007D0A1209A7EF2BFFEE3A90003EF0A37E
:100D8A00EFF090003CE475F0011209B980AA300036
:100D9A000A90003EE0FEA3E0FF800F90003EE0FED6
:0B0DAA00A3E0FFC3E49FFFE49EFE22D5
:100F3A00020026E493A3F8E493A34003F68001F2A7
:100F4A0008DFF48029E493A3F85407240CC8C333B8
:100F5A00C4540F4420C8834004F456800146F6DF87
:100F6A00E4800B0102040810204080901223E47EE2
:100F7A00019360BCA3FF543F30E509541FFEE4937C
:100F8A00A360010ECF54C025E060A840B8E493A343
:100F9A00FAE493A3F8E493A3C8C582C8CAC583CA6E
:100FAA00F0A3C8C582C8CAC583CADFE9DEE780BE26
:0112270000C6
:10094F00BB010689828A83E0225002E722BBFE02A6
:09095F00E32289828A83E49322D9
:10096800BB010CE58229F582E5833AF583E0225044
:1009780006E92582F8E622BBFE06E92582F8E2228E
:0D098800E58229F582E5833AF583E49322A8
:10099500BB010689828A83F0225002F722BBFE0141
:0209A500F3223B
:1009A700EF8DF0A4A8F0CF8CF0A428CE8DF0A42E64
:0209B700FE221E
:1009B900C5F0F8A3E028F0C5F0F8E58215827002C9
:0609C9001583E038F02266
:1009CF00A3F8E0C5F025F0F0E582158270021583DB
:0609DF00E0C838F0E82238
:1009E500F8E0FBA3A3E0F925F0F0E582158270029B
:0709F5001583E0FA38F0223F
:0909FC00EBF0A3EAF0A3E9F022FC
:100A0500D083D082F8E4937012740193700DA3A380
:100A150093F8740193F5828883E473740293686094
:060A2500EFA3A3A380DF94
:10114B00EFB40A07740D121156740A309811A8994E
:10115B00B8130CC2983098FDA899C298B811F63004
:07116B0099FDC299F59922DC
:0F11E400EFC394304007EF943A50028001C322CA
:10000E00EFC394094005EF940E4004EFB42003D3E0
:04001E008001C32278
:00000001FF
