:100E64003F065B4F666D7D077F6F505F32161D94A2
:050E7400905E1014EF78
:03000B00020B6B7A
:100B6B00C0E0C0D0E5386003020C23758A66758C33
:100B7B00FC0527E52770020526052885564BA2A7FD
:100B8B00E433F556E52914601914602724027032FA
:100B9B00E54B702EE5566401702885282B752901CD
:100BAB008020E54BB4011BE556701785282F75295E
:100BBB0002800FE54B700BE556B4010685283275A4
:100BCB002903052A85574CA2A6E433F557E52C14C7
:100BDB00602214603124026003020C77E54C600341
:100BEB00020C77E55764016003020C77852A2E759A
:100BFB002C018078E54C64017072E557706E852A84
:100C0B0031752C028066E54C7062E5576401705CAF
:100C1B00852A34752C038054E54F701730A70AC210
:100C2B00A785228C85248A8043D2A785458C85484D
:100C3B008A803930A71CE54DB40A0D754D0085220D
:100C4B008C85248AC2A7802485458C85488A054DCE
:100C5B00801AE54DB40A0D754D0085458C85488A83
:100C6B00D2A7800885228C85248A054DD0D0D0E070
:010C7B003246
:03001B00020C7C58
:100C7C00C0E0C0D0E550701730A60A85238D8525BD
:100C8C008BC2A6804385468D85498BD2A680393090
:100C9C00A61CE54EB40A0D754E0085238C85258A5D
:100CAC00C2A6802485468C85498A054E801AE54E5D
:100CBC00B40A0D754E0085468C85498AD2A68008EB
:0D0CCC0085238C85258A054ED0D0D0E032DE
:100E4F005389F0438901758A66758CFCC28DD28CEB
:050E5F00D2A9D2B92266
:0A08DB008F588C598D5A8A5B8B5C94
:1008E500AB07E4FAF9F8FF7E107D0EFC120D828F3E
:1008F500628E618D608C5FAE5BAF5CAB07AA06EA6A
:100905003395E0F9F87F007E107D0E7C00120D8294
:100915008F668E658D648C63E558B40A0AE55A6462
:100925005045597002800DE558B40A25E55A645AB8
:100935004559701DAF62AE61AD60AC5F7B0AFAF9D7
:10094500F81207E68F628E618D608C5F754F0180AE
:1009550003E4F54FE55C640A455B700AE55E6450A7
:10096500455D70028010E55C640A455B7025E55EB7
:10097500645A455D701DAF66AE65AD64AC637B0AB8
:10098500FAF9F81207E68F668E658D648C637550EB
:10099500018003E4F550AE59AF5AEE3395E0FDFC06
:1009A500AB62AA61A960A85F12075BE47B64FAF9F0
:1009B500F81207E6C3E5629FFDE5619EFCC3742856
:1009C5009FFFE49EAB07FAC374289DFFE49CAD0727
:1009D5008A45AF038F48F522AF058F24AE5DAF5E24
:1009E500EE3395E0FDFCAB66AA65A964A863120722
:1009F5005BE47B64FAF9F81207E6C3E5669FFDE55B
:100A0500659EFCC3740B9FFFE49EAB07FAC3740B92
:100A15009DFFE49CAD078A46AF038F49F523AF05DB
:100A25008F2575890043891185458C85488A8549B7
:100A35008B85468DD28CD2A9D28ED2ABD2A7D2A627
:010A4500228E
:070D31002552F8E6FD7C00ED
:100D3800EF24FE601414601B14601E24037022C28A
:100D4800B5C2B4C2B3D2B28018C2B5C2B4D2B3C2AB
:100D5800B2800EC2B5D2B48004D2B5C2B4C2B3C296
:100D6800B2746E2DF582740E3CF583E493F5807FA2
:0A0D7800017E00120E797580FF2243
:100CD9008C588D59755201E5592401FFE43558FEA8
:100CE900C3E5529FEE6480F8748098503A1206C9A1
:100CF900FFE55275F00AA424FBFEEFD39E4024E5DC
:100D09005275F00AA42405FFE435F0FE1206C9C3A2
:100D19009FEE6480F87480985009E55275F00AA432
:080D29001206E2055280B0221F
:10037A00D2AF120E36120E4F75330A7541327535E9
:10038A001475423C853337854136209715E5477009
:10039A00110540E540C394014023E4F54075470147
:1003AA00801B309718E547B401130553E553C394EE
:1003BA0001400A0538533801B2A5E4F547E5381477
:1003CA0070030204BC0460030205C3E529640370D8
:1003DA0035C3E532952BFBE49400FA7E037FE8AD42
:1003EA0003FC1207068F33C3E52F952BFFE4940015
:1003FA00FE7C007D641206F4AD03AC021207068F80
:10040A0041E4F528F529E52C64037035C3E53495F4
:10041A002EFBE49400FA7E037FE8AD03FC12070684
:10042A008F35C3E531952EFFE49400FE7C007D6490
:10043A001206F4AD03AC021207068F42E4F52AF560
:10044A002C7B007A0079337D057C00120CD97A0066
:10045A0079417D09120CD97A0079357D05120CD9BA
:10046A007A0079427D09120CD9209315E54470115E
:10047A00053FE53FC394014023E4F53F75440180FD
:10048A001B309318E544B401130551E551C3940197
:10049A00400A0543534301B2A0E4F544E543700919
:1004AA008533378541360205C3853537854236029D
:1004BA0005C3209315E5447011053FE53FC3940138
:1004CA004023E4F53F754401801B309318E544B49A
:1004DA0001130551E551C39401400A054A534A01E3
:1004EA00B2A0E4F544E54A1460630460030205C35C
:1004FA00853337854136120A46EF24EA601F24F70E
:10050A00602B146038240B60030205C3740A253378
:10051A00F533D3943240347533320205AE74F6257E
:10052A0033F533C3940A500375330A8077740A2566
:10053A0041F541D3945A400375415A806774F625B0
:10054A0041F541C3940A500375410A8057853537EE
:10055A00854236120A46EF24EA601B24F760271404
:10056A006034240B7053740A2535F535D394324020
:10057A0003753532802E74F62535F535C3940A5045
:10058A000375350A801E740A2542F542D3945A40EF
:10059A000375425A800E74F62542F542C3940A50F6
:1005AA000375420AE541FD7C00E535FB7A00755D7D
:1005BA000085425EAF331208DB7F0A7E00120E7995
:1005CA00853754853655E4F552E55475F00A84E5C5
:1005DA0052FDC374029DFD74382DF8A6F0E55475DA
:1005EA00F00A84F554E55204FF7439120D310552AC
:1005FA00E552C3940240D2E4F552E55575F00A84F7
:10060A00E552FDC374029DFD743A2DF8A6F0E55536
:10061A0075F00A84F555E5522403FF743B120D3137
:10062A000552E552C3940240D1C3E52794E8E52672
:10063A0094035003020394E4F526F5277F6312001E
:10064A00037F681200037F311200037F3A1200030E
:10065A007F661200037F3D120003AF337E00120D46
:10066A00C67F2C1200037F641200037F3D12000331
:10067A00AF417E00120DC67F3B1200037F6312005A
:10068A00037F681200037F321200037F3A120003CD
:10069A007F661200037F3D120003AF357E00120D04
:1006AA00C67F2C1200037F641200037F3D120003F1
:0F06BA00AF427E00120DC67F3B12000302039475
:100E7900EF1FAC0670011E4C600A7D027CC7DCFEC8
:040E8900DDFC80EC20
:010E8D002242
:100E17002091047F0180172094047F028010209581
:0E0E2700047F0380092092047F048002E4FF10
:010E3500229A
:100A4600E4FD120E17EF24FE601414601B146022DE
:100A560024037028A291E433FE750F018020A2942E
:100A6600E433FE750F028016A295E433FE750F037C
:100A7600800CA292E433FE750F0480027E01E50B22
:100A8600D39400401D050DE50D7002050C9432E56A
:100A96000C9400400DE50D9450E50C940050037540
:100AA6000802E50814602014603D147003020B541C
:100AB60024036003020B62EE6003020B65F509F581
:100AC6000A750801020B65EE701B050AE50A70023D
:100AD6000509C39401E50994005003020B657508E6
:100AE60002050B807A8075EE6045C3E50D9432E50C
:100AF6000C94005003E4F508C3E50D9432E50C941C
:100B060000405CE50D9450E50C94005052E50BB4A2
:100B1600010AE50F75F00AA404FD8035E50BB40261
:100B26000CE50FB50E0775F00AA42402FD80220518
:100B36000AE50A70020509C39450E5099400401FAE
:100B4600E50F75F00AA42403FD7508038011EE6015
:100B56000EE4F508F50BF50CF50D8003E4F50885B4
:040B66000F0EAF05BA
:010B6A002268
:030E8E00257500C7
:100E360043878075985053890F438920758BF475C5
:090E46008DF4C2ABD28ED2AC22B5
:080003008F993099FDC299228A
:100DC6007565FF75660E75678E8E688F697B007A0E
:100DD60000795812007AE4FF74582FF8E6600AF595
:090DE600993099FDC2990F80EFCC
:010DEF0022E1
:0300000002000EED
:0C000E00787FE4F6D8FD75817502037A56
:1006C900BB010689828A83E0225002E722BBFE022F
:0906D900E32289828A83E4932262
:1006E200BB010689828A83F0225002F722BBFE01F7
:0206F200F322F1
:1006F400EF8DF0A4A8F0CF8CF0A428CE8DF0A42E1A
:02070400FE22D3
:10070600BC000BBE0029EF8DF084FFADF022E4CCD7
:10071600F875F008EF2FFFEE33FEEC33FCEE9DECA0
:10072600984005FCEE9DFE0FD5F0E9E4CEFD22EDE6
:10073600F8F5F0EE8420D21CFEADF075F008EF2F30
:10074600FFED33FD4007985006D5F0F222C398FD21
:050756000FD5F0EA22BE
:10075B00E88FF0A4CC8BF0A42CFCE98EF0A42CFC3D
:10076B008AF0EDA42CFCEA8EF0A4CDA8F08BF0A4BB
:10077B002DCC3825F0FDE98FF0A42CCD35F0FCEB1A
:10078B008EF0A4FEA9F0EB8FF0A4CFC5F02ECD39DF
:0F079B00FEE43CFCEAA42DCE35F0FDE43CFC224C
:1007AA0075F008758200EF2FFFEE33FECD33CDCC06
:1007BA0033CCC58233C5829BED9AEC99E582984089
:1007CA000CF582EE9BFEED9AFDEC99FC0FD5F0D666
:1007DA00E4CEFBE4CDFAE4CCF9A88222B800C1B990
:1007EA000059BA002DEC8BF084CFCECDFCE5F0CBCE
:1007FA00F97818EF2FFFEE33FEED33FDEC33FCEB07
:10080A0033FB10D703994004EB99FB0FD8E5E4F9C1
:10081A00FA227818EF2FFFEE33FEED33FDEC33FCAE
:10082A00C933C910D7059BE99A4007EC9BFCE99AA2
:10083A00F90FD8E0E4C9FAE4CCFB2275F010EF2FE7
:10084A00FFEE33FEED33FDCC33CCC833C810D707E7
:10085A009BEC9AE899400AED9BFDEC9AFCE899F822
:0E086A000FD5F0DAE4CDFBE4CCFAE4C8F922B5
:100D8200C2D5E830E70FB2D5E4C39BFBE49AFAE49C
:100D920099F9E498F8EC30E717B2D5120DB81207BA
:100DA200E6E4C39BFBE49AFAE499F9E498F8800339
:100DB2001207E630D50DE4C39FFFE49EFEE49DFDDD
:040DC200E49CFC228F
:10001E00E5712465F8E6057122786230070278658D
:10002E00E475F0011208A50206C92000EB7F2ED25E
:10003E00008018EF540F2490D43440D4FF30040BBA
:10004E00EF24BFB41A0050032461FFE5726002155D
:10005E00720575E5757002057430070D7862E475EA
:10006E00F0011208A5EF0206E2020DF07403D207AA
:10007E008003E4C207F5718B628A638964E4F572CA
:10008E00F574F575E57260077F2012005980F575DD
:10009E0073FFC201C200C202C203C205C206C20879
:1000AE00120027FF700D3007057F0012006AAF7532
:1000BE00AE7422B4255FC2D5C204120027FF24D02D
:1000CE00B40A00501A75F00A787230D50508B6FFDA
:1000DE000106C6A426F620D5047002D20380D924C8
:1000EE00CFB41A00EF5004C2E5D20402026AD20164
:1000FE0080C6D20080C0D20280BCD2D580BAD205D2
:10010E0080B47F201200592002077401B57200409E
:10011E00F112001EFF120059020092D208D2068080
:10012E009512001EFB12001EFA12001EF94A4B70A9
:10013E0006793B7A037BFF20022EE572602A7E0051
:10014E008E8275830012087860060EEE657370F06D
:10015E00C2D5EBC0E0EAC0E0E9C0E0EE1202B1D0D9
:10016E00E0F9D0E0FAD0E0FB1206C9FF60AAEBC0BE
:10017E00E0EAC0E0E9C0E0120059D0E02401F9D075
:10018E00E03400FAD0E0FBE5730460DCD573D9806F
:10019E00877BFF7A0279ADD202809C79108002793A
:1001AE0008C206C2088008D2D5790A8004790AC22C
:1001BE00D5E573047002F573E4FAFDFEFF12001E1E
:1001CE00FC7B0820011312001EFD7B1030000A126A
:1001DE00001EFE12001EFF7B20EC3382D592D550FE
:1001EE0013C3E43000069FFFE49EFEE42001039D4E
:1001FE00FDE49CFCE4CBF8C201EC700CCFCECDCC70
:10020E00E824F8F870F38017C3EF33FFEE33FEEDFA
:10021E0033FDEC33FCEB33FB994002FB0FD8E9EBDB
:10022E00300105F8D0E0C448B201C0E00AEC4D4EF2
:10023E004F78207B0070C2EAB5730040BCC0E0125C
:10024E0002B3D0F0D0E0200104C4C0E0C4B201C0BB
:10025E00F0120042D0F0D5F0EB0200921208B50178
:10026E002F5301A95801004C00FC4201AD4F01B5BE
:0F027E004401B54901154301BB55019F46019F3E
:10028D0045019F47035B5001042D01082E012B2BC7
:10029D00010C2301292003442A00C4480000012336
:1002AD003F3F3F00790AA2D5200314300509B9104C
:1002BD00020404B9080104A2D5200602500104204D
:1002CD0002689202B572005034C0E07F20300319ED
:1002DD007F30A20272067205500F12030AC202C2CB
:1002ED0006C205C2087F30800F300503E9C0E01259
:1002FD000059300503D0E0F9D0E0B572CC300517C8
:10030D007F30B9100C1200597F583004077F788068
:10031D0003B908031200593002057F2D0200597FE1
:10032D00202008F87F2B2006F322920280CF286E22
:10033D00756C6C2900D20112001E3001F8C20178D3
:10034D007230D50108F60200C42D504349581200F1
:10035D001E2403B405004001E49003569312004A95
:0D036D00743A12004AD2037572040201A90D
:10087800BB010CE58229F582E5833AF583E0225035
:1008880006E92582F8E622BBFE06E92582F8E2227F
:0D089800E58229F582E5833AF583E4932299
:1008A500FAE6FB0808E6F925F0F618E6CA3AF62254
:1008B500D083D082F8E4937012740193700DA3A3D2
:1008C50093F8740193F5828883E4737402936860E6
:0608D500EFA3A3A380DFE6
:100DF000EFB40A07740D120DFB740A309811A8990C
:100E0000B8130CC2983098FDA899C298B811F63062
:070E100099FDC299F599223A
:00000001FF
