:0A0DF5003F065B4F666D7D077F6FC0
:030E1900012D01A7
:03000B00020BBC29
:100BBC00C0E0C0D0E54D701730A60AC2A685228CC5
:100BCC0085248A8043D2A6853B8C853F8A80393028
:100BDC00A61CE54BB40A0D754B0085228C85248A26
:100BEC00C2A68024853B8C853F8A054B801AE54B39
:100BFC00B40A0D754B00853B8C853F8AD2A68008C4
:0D0C0C0085228C85248A054BD0D0D0E032A3
:03001B00020C19BB
:100C1900C0E0C0D0E54E701730A70A85238D852521
:100C29008BC2A78043853C8D85408BD2A780393004
:100C3900A71CE54CB40A0D754C0085238C85258AC3
:100C4900C2A78024853C8C85408A054C801AE54CD6
:100C5900B40A0D754C00853C8C85408AD2A7800862
:0D0C690085238C85258A054CD0D0D0E03243
:10081300E538FD7C00E527FB7A00755E0085395FCE
:02082300AF26FE
:0A0825008F598C5A8D5B8A5C8B5D45
:10082F00AB07E4FAF9F8FF7E107D0EFC120C768F01
:10083F00638E628D618C60AE5CAF5DAB07AA06EA1A
:10084F003395E0F9F87F007E107D0E7C00120C7658
:10085F008F678E668D658C64E559B40A0AE55B6413
:10086F0050455A7002800DE559B40A25E55B645A6C
:10087F00455A701DAF63AE62AD61AC607B0AFAF989
:10088F00F81206F38F638E628D618C60754D018057
:10089F0003E4F54DE55D640A455C700AE55F64505D
:1008AF00455E70028010E55D640A455C7025E55F6A
:1008BF00645A455E701DAF67AE66AD65AC647B0A6A
:1008CF00FAF9F81206F38F678E668D658C64754E94
:1008DF00018003E4F54EAE5AAF5BEE3395E0FDFCBD
:1008EF00AB63AA62A961A860120668E47B64FAF997
:1008FF00F81206F3C3E5639FFDE5629EFCC37428FF
:10090F009FFFE49EAB07FAC374289DFFE49CAD07DD
:10091F008A3BAF038F3FF522AF058F24AE5EAF5FEB
:10092F00EE3395E0FDFCAB67AA66A965A8641206D5
:10093F0068E47B64FAF9F81206F3C3E5679FFDE5F7
:10094F00669EFCC3740B9FFFE49EAB07FAC3740B48
:10095F009DFFE49CAD078A3CAF038F40F523AF05A5
:10096F008F25758900438911853B8C853F8A85408A
:10097F008B853C8DD28CD2A9D28ED2ABD2A6D2A7E8
:01098F002245
:070B41002552F8E6FD7C00DF
:100B4800EF14B408005054900B5D75F003A4C583EE
:100B580025F0C58373020B75020B79020B7D020B1E
:100B680081020B85020B8D020B95020B9DD2A4808E
:100B78000ED2A48012D2A48016D2A4801AC2A4D203
:100B8800A3D2A28016C2A4D2A3C2A2800EC2A4C2BB
:100B9800A3D2A28006C2A4C2A3C2A274F52DF58274
:100BA800740D3CF583E493F5807F017E00120DE01F
:040BB800E4F58022BE
:10037A00D2AF75260A75383275270A7539321208CE
:10038A0013752B0085262C752800853829852B5353
:10039A00852C54852855852956E4F552AE53AF5419
:1003AA007C007D0A120613AF05E552FDC374029D57
:1003BA00FD742F2DF8A607AE53AF547C007D0A12A8
:1003CA0006138E538F54E55204FF7430120B410505
:1003DA0052E552C3940240C4E4F552AE55AF567C7E
:1003EA00007D0A120613AF05E552FDC374029DFD96
:1003FA0074312DF8A607AE55AF567C007D0A120659
:10040A00138E558F56E5522403FF7432120B4105A1
:10041A0052E552C3940240C3E52DFD7C007F0812C9
:10042A000B4820B115E53A70110535E535C394013D
:10043A004026E4F535753A01801E30B11BE53AB421
:10044A000116054FE54FC39401400D052DE52DB466
:10045A000303752D01E4F53AE52D24FE6069046075
:10046A0003020531752B0085262C7528008538294D
:10047A00120990EF24EA601F24F7602B14603824D5
:10048A000B6003020531740A2526F526D3943240FF
:10049A003475263202052E74F62526F526C3940AEB
:1004AA00500375260A807D740A2538F538D3945A84
:1004BA00400375385A806D74F62538F538C3940AA6
:1004CA00500375380A805D752B0085272C75280026
:1004DA00853929120990EF24EA601B24F760271452
:1004EA006034240B7041740A2527F527D3943240CF
:1004FA0003752732802E74F62527F527C3940A50F0
:10050A000375270A801E740A2539F539D3945A408F
:10051A000375395A800E74F62539F539C3940A5091
:10052A000375390A1208137590FFC293209615E5D0
:10053A003D70110536E536C394014061E4F5367520
:10054A003D018059309656E53D640170500550E5ED
:10055A0050C394014047E526FD7C00E4FF120D6478
:10056A007F057E00120DE0E538FD7C007F01120D4B
:10057A00647F057E00120DE0E527FD7C007F0212F4
:10058A000D647F057E00120DE0E539FD7C007F03D6
:10059A00120D647F057E00120DE0E4F53D7590FFB3
:1005AA00C290209615E53E70110537E537C39401D0
:1005BA00404DE4F537753E018045309642E53E648C
:1005CA0001703C0551E551C394014033E4FF120C1C
:1005DA00BA8F267F01120CBA8F387F02120CBA8F9B
:1005EA00277F03120CBA8F39E538FD7C00E527FB1B
:1005FA007A00755E008F5FAF26120825E4F53E7F0C
:09060A000A7E00120DE0020397C4
:100DE000EF1FAC0670011E4C600A7D027CC7DCFE62
:040DF000DDFC80ECBA
:010DF40022DC
:100D880020B1047F01801720B0047F02801020B2B8
:0E0D9800047F03800920B3047F048002E4FF7F
:010DA600222A
:10099000E4FD120D88EF24FE601414601B14602225
:1009A00024037028A2B1E433FE7579018020A2B03F
:1009B000E433FE7579028016A2B2E433FE75790342
:1009C000800CA2B3E433FE75790480027E01E575E4
:1009D000D39400401D0577E577700205769432E5E3
:1009E000769400400DE5779450E5769400500375B9
:1009F0007202E57214602014603D147003020A9EB6
:100A000024036003020AACEE6003020AAFF573F53B
:100A100074757201020AAFEE701B0574E574700202
:100A20000573C39401E57394005003020AAF757215
:100A3000020575807A8075EE6045C3E5779432E5EE
:100A40007694005003E4F572C3E5779432E576942A
:100A500000405CE5779450E57694005052E575B41B
:100A6000010AE57975F00AA404FD8035E575B40244
:100A70000CE579B5780775F00AA42402FD802205FB
:100A800074E57470020573C39450E5739400401FBD
:100A9000E57975F00AA42403FD7572038011EE60F8
:100AA0000EE4F572F575F576F5778003E4F5728559
:040AB0007978AF059D
:010AB400221F
:100D64008F598C5A8D5B120E097FA0120D1412003C
:100D74000EAF59120D1412000EAF5B120D141200B7
:040D84000E020E123B
:020CBA008F5950
:100CBC00120E097FA0120D1412000EAF59120D1452
:100CCC0012000E120E097FA1120D1412000E120D3D
:0D0CDC00A78F5A7F01120DFF120E12AF5AA2
:010CE90022E8
:090E0900D2A0D2A1C2A0C2A12214
:070E1200C2A0D2A1D2A02270
:020D1400AD0729
:100D1600E4FB74807E00A803088006CEA2E713CE0B
:100D260013D8F8FFEDF582EF558224FF92A0D2A1E9
:060D3600C2A10BBB08DCAA
:010D3C002294
:100DA700E4FFD2A0FED2A130A00D7480A80608806F
:0D0DB70002C313D8FC4207C2A10EBE08E81B
:010DC400220C
:0A0DFF00EF24FF92A0D2A1C2A122AE
:0B000E00D2A0D2A1A2A0E433FFC2A147
:0100190022C4
:030E1D0025750038
:100DC50043878075985053890F438920758BF47537
:0B0DD5008DF4C2ABD28ED2AFD2AC22A4
:080003008F993099FDC299228A
:100CEA00750BFF750C0E750D1D8E0E8F0F7B007A1E
:100CFA0000796812007AE4FF74682FF8E6600AF552
:090D0A00993099FDC2990F80EFA8
:010D130022BD
:03000000020AB53C
:0C0AB500787FE4F6D8FD758179020AFC18
:10061300BC000BBE0029EF8DF084FFADF022E4CCCB
:10062300F875F008EF2FFFEE33FEEC33FCEE9DEC94
:10063300984005FCEE9DFE0FD5F0E9E4CEFD22EDDA
:10064300F8F5F0EE8420D21CFEADF075F008EF2F24
:10065300FFED33FD4007985006D5F0F222C398FD15
:050663000FD5F0EA22B2
:10066800E88FF0A4CC8BF0A42CFCE98EF0A42CFC31
:100678008AF0EDA42CFCEA8EF0A4CDA8F08BF0A4AF
:100688002DCC3825F0FDE98FF0A42CCD35F0FCEB0E
:100698008EF0A4FEA9F0EB8FF0A4CFC5F02ECD39D3
:0F06A800FEE43CFCEAA42DCE35F0FDE43CFC2240
:1006B70075F008758200EF2FFFEE33FECD33CDCCFA
:1006C70033CCC58233C5829BED9AEC99E58298407D
:1006D7000CF582EE9BFEED9AFDEC99FC0FD5F0D65A
:1006E700E4CEFBE4CDFAE4CCF9A88222B800C1B984
:1006F7000059BA002DEC8BF084CFCECDFCE5F0CBC2
:10070700F97818EF2FFFEE33FEED33FDEC33FCEBFA
:1007170033FB10D703994004EB99FB0FD8E5E4F9B5
:10072700FA227818EF2FFFEE33FEED33FDEC33FCA2
:10073700C933C910D7059BE99A4007EC9BFCE99A96
:10074700F90FD8E0E4C9FAE4CCFB2275F010EF2FDB
:10075700FFEE33FEED33FDCC33CCC833C810D707DB
:100767009BEC9AE899400AED9BFDEC9AFCE899F816
:0E0777000FD5F0DAE4CDFBE4CCFAE4C8F922A9
:100C7600C2D5E830E70FB2D5E4C39BFBE49AFAE4A9
:100C860099F9E498F8EC30E717B2D5120CAC1206D5
:100C9600F3E4C39BFBE49AFAE499F9E498F8800339
:100CA6001206F330D50DE4C39FFFE49EFEE49DFDDE
:040CB600E49CFC229C
:10001E00E517240BF8E60517227808300702780B4F
:10002E00E475F0011207DD0207852000EB7F2ED26A
:10003E00008018EF540F2490D43440D4FF30040BBA
:10004E00EF24BFB41A0050032461FFE518600215B7
:10005E0018051BE51B7002051A30070D7808E475AC
:10006E00F0011207DDEF0207CB020D3D7403D2073C
:10007E008003E4C207F5178B088A09890AE4F5188C
:10008E00F51AF51BE51860077F2012005980F575EB
:10009E0019FFC201C200C202C203C205C206C208D3
:1000AE00120027FF700D3007057F0012006AAF1B8C
:1000BE00AE1A22B4255FC2D5C204120027FF24D087
:1000CE00B40A00501A75F00A781830D50508B6FF34
:1000DE000106C6A426F620D5047002D20380D924C8
:1000EE00CFB41A00EF5004C2E5D20402026AD20164
:1000FE0080C6D20080C0D20280BCD2D580BAD205D2
:10010E0080B47F201200592002077401B5180040F8
:10011E00F112001EFF120059020092D208D2068080
:10012E009512001EFB12001EFA12001EF94A4B70A9
:10013E0006793B7A037BFF20022EE518602A7E00AB
:10014E008E8275830012079E60060EEE651970F0A2
:10015E00C2D5EBC0E0EAC0E0E9C0E0EE1202B1D0D9
:10016E00E0F9D0E0FAD0E0FB120785FF60AAEBC001
:10017E00E0EAC0E0E9C0E0120059D0E02401F9D075
:10018E00E03400FAD0E0FBE5190460DCD519D98023
:10019E00877BFF7A0279ADD202809C79108002793A
:1001AE0008C206C2088008D2D5790A8004790AC22C
:1001BE00D5E519047002F519E4FAFDFEFF12001ED2
:1001CE00FC7B0820011312001EFD7B1030000A126A
:1001DE00001EFE12001EFF7B20EC3382D592D550FE
:1001EE0013C3E43000069FFFE49EFEE42001039D4E
:1001FE00FDE49CFCE4CBF8C201EC700CCFCECDCC70
:10020E00E824F8F870F38017C3EF33FFEE33FEEDFA
:10021E0033FDEC33FCEB33FB994002FB0FD8E9EBDB
:10022E00300105F8D0E0C448B201C0E00AEC4D4EF2
:10023E004F78207B0070C2EAB5190040BCC0E012B6
:10024E0002B3D0F0D0E0200104C4C0E0C4B201C0BB
:10025E00F0120042D0F0D5F0EB0200921207ED0141
:10026E002F5301A95801004C00FC4201AD4F01B5BE
:0F027E004401B54901154301BB55019F46019F3E
:10028D0045019F47035B5001042D01082E012B2BC7
:10029D00010C2301292003442A00C4480000012336
:1002AD003F3F3F00790AA2D5200314300509B9104C
:1002BD00020404B9080104A2D5200602500104204D
:1002CD0002689202B518005034C0E07F2030031947
:1002DD007F30A20272067205500F12030AC202C2CB
:1002ED0006C205C2087F30800F300503E9C0E01259
:1002FD000059300503D0E0F9D0E0B518CC30051722
:10030D007F30B9100C1200597F583004077F788068
:10031D0003B908031200593002057F2D0200597FE1
:10032D00202008F87F2B2006F322920280CF286E22
:10033D00756C6C2900D20112001E3001F8C20178D3
:10034D001830D50108F60200C42D5043495812004B
:10035D001E2403B405004001E49003569312004A95
:0D036D00743A12004AD2037518040201A967
:100AC10002037AE493A3F8E493A34003F68001F2CE
:100AD10008DFF48029E493A3F85407240CC8C33336
:100AE100C4540F4420C8834004F456800146F6DF05
:100AF100E4800B0102040810204080900E19E47E6E
:100B0100019360BCA3FF543F30E509541FFEE493F9
:100B1100A360010ECF54C025E060A840B8E493A3C0
:100B2100FAE493A3F8E493A3C8C582C8CAC583CAEB
:100B3100F0A3C8C582C8CAC583CADFE9DEE780BEA3
:010E1C0000D5
:10078500BB010689828A83E0225002E722BBFE0272
:09079500E32289828A83E49322A5
:10079E00BB010CE58229F582E5833AF583E0225010
:1007AE0006E92582F8E622BBFE06E92582F8E2225A
:0D07BE00E58229F582E5833AF583E4932274
:1007CB00BB010689828A83F0225002F722BBFE010D
:0207DB00F32207
:1007DD00FAE6FB0808E6F925F0F618E6CA3AF6221D
:1007ED00D083D082F8E4937012740193700DA3A39B
:1007FD0093F8740193F5828883E4737402936860AF
:06080D00EFA3A3A380DFAE
:100D3D00EFB40A07740D120D48740A309811A89972
:100D4D00B8130CC2983098FDA899C298B811F63016
:070D5D0099FDC299F59922EE
:00000001FF
